:10000000DC210020D1010000CD010000CD01000065
:10001000CD010000CD010000CD0100000000000076
:100020000000000000000000000000002D1A000089
:10003000CD01000000000000D91A0000151B0000CF
:10004000024A1368002BFCDA704700BF10C00F4053
:10005000034A136843F040031360FFF7F1BF00BF8A
:1000600010C00F40034A136843F001031360FFF709
:10007000E7BF00BF10C00F40144908B50B6823F458
:10008000067303430B60FFF7DBFF114B1A68114B3C
:100090001340114A934218D110F0101F08D00B687A
:1000A000DB0505D40B6843F480730B60FFF7C8FFD2
:1000B000000C0A4B40F0010018601968074A00293B
:1000C000FBDA136823F00103136008BD10C00F4072
:1000D00000E00F400000FF7000000A102CC00F402D
:1000E000074908B5074B0B60FFF7AAFF064B1860DE
:1000F000FFF7A6FF00230B60BDE80840FFF7A0BF95
:1001000060C30F40549535A30CC00F40014B1868D5
:10011000704700BF00C00F40014B1960FFF790BF50
:1001200004C00F4010B500248C4209D0054B50F894
:10013000242023449B0001341A60FFF781FFF3E77A
:1001400010BD00BF0CF00310054B00EB81011B1A22
:10015000884203D01A5840F8042BF9E7704700BFD3
:1001600030C00F40034A136843F002031360FFF7E7
:1001700067BF00BF10C00F4008B1024B00E0024B48
:10018000186870471CC00F4018C00F40024B186819
:10019000C0F38010704700BF10C00F40044A1368BE
:1001A00043F0804343F480731360FFF749BF00BFFF
:1001B00010C00F40044A136823F0804323F4807377
:1001C0001360FFF73DBF00BF10C00F40FEE7000007
:1001D0000A4A0B4B0B498B4204D252F8040F43F8E6
:1001E000040BF8E7084809494FF000028842B8BFFD
:1001F00040F8042BFADB00F03DBA00BF20320000CB
:10020000000000200800002008000020DC1D002065
:100210008069C0F3001070478369DB06FCD4006876
:10022000704783699B06FCD40160704770B5254810
:10023000254D264C00F07EFA254800F07BFA01207F
:1002400000F07CFE40F2014000F078FE03214FF008
:10025000402000F071FE00F00DFB1E4B186000F016
:1002600009FB4FF4E1310246002001F0C9FC2B6884
:100270005E6923681B6E98474FF4E13260230146A4
:100280001548B047154800F055FA154800F052FAE5
:10029000144800F053FE144800F050FEC0211348EB
:1002A00000F04AFE00F0E6FA114B18602B685D6919
:1002B00023681B6E9847602301460E4A0E48A847E4
:1002C000002070BD001800F014000001440000017F
:1002D000000800F0C8CF004000C00040031800F044
:1002E000020800F001180200011C0200006000403A
:1002F000C8FF004090D0030000F000400F4B0C22DC
:1003000030B51A7006229A7002225A7003221A72AD
:1003100040F622325A810A4B0A4D002018800A4BBF
:100320000024C3E90045094B00240025C3E900452A
:10033000074B1870074B01221A7030BDFC1C0020BF
:10034000441D002000004940381D0020F01C002002
:10035000461D0020471D002010B50221012001F09C
:100360003BFA0A4B0A4C186000231A46214601F05A
:10037000CFFA0221012001F02FFA064B186000236A
:100380001A46214601F0C4FA002010BD401D00208D
:10039000441D0020481D002010B51448144C00F0E6
:1003A000DDF901F08FFE01F017F92070FFF7A6FFCD
:1003B000237818432070FFF739FF23781843207003
:1003C00000F0FEFA237818432070FFF7C5FF23786A
:1003D00018432070DFF81C00016841F470010160CF
:1003E000BFF34F8FBFF36F8F10BD00BF400500C13B
:1003F000F81C002088ED00E073B5FFF7DBFE8748AE
:1004000000F098F9854800F081F90028FAD0FFF74C
:10041000C3FF834801F01CFDFFF7B8FE002800F081
:10042000F8800020FFF7A8FE10F008067D4C01D0F0
:100430007D48BCE0C30740F1A6807C4801F008FD80
:1004400001F07AFB01217A4800F058FD324605465A
:100450000F21784800F055FD15F001050ED1072158
:100460002046FFF771FE072120462560FFF75AFE60
:10047000714B01221A709D705A709AE06F48FFF715
:10048000CBFEC0B2E2288DF8070049D16B486C4D15
:10049000FFF7C2FEC0B28DF8070028706748FFF76B
:1004A000BBFEC0B28DF8070068706448FFF7B4FE69
:1004B000C0B28DF80700A8706048FFF7ADFE5F4836
:1004C0008DF80760FFF7A8FE9DF807301843C0B20B
:1004D0008DF80700A8805948FFF79EFE57488DF811
:1004E0000760FFF799FE9DF807301843C0B28DF8FA
:1004F0000700E8805148FFF78FFEC0B28DF8070073
:1005000028724E48FFF788FE4C488DF80760FFF7C9
:1005100083FE9DF807301843C0B28DF8070068814C
:100520004648FFF779FEC0B2FF288DF8070040D19A
:100530004248FFF771FE002540488DF80750FFF74D
:100540006BFE9DF807203F4B1043C0B218808DF81A
:1005500007003A48FFF760FE38488DF80750FFF76C
:100560005BFE9DF80720384B104302A9C0B201F88A
:10057000010DC838188035482B464FF0FF3200680F
:1005800001F05EF915E0C60601D531480FE04507D8
:1005900001D530480BE0010601D52F4807E042069F
:1005A00001D52E4803E083064CBF2D482D4801F0AD
:1005B0004FFC07211B48FFF7C7FD2268012A04D121
:1005C0001D4B002119709A705A70274E6068B0FB5D
:1005D000F6F001F0EFFE254D254BC5E90001A068BE
:1005E000B0FBF3F001F0E6FEC5E90201E068B0FB04
:1005F000F6F001F0DFFEC5E904012069B0FBF6F07A
:1006000001F0D8FEC5E90601606901F0D3FEC5E935
:10061000080101F091FA02B070BD00BF001400F0B3
:100620004C2C00004C1D0020622C0000712C00009E
:100630000040024000500240F91C002000F0004041
:10064000FC1C0020441D0020081D0020401D00202F
:10065000812C00009B2C0000B22C0000CC2C000050
:10066000EB2C0000172D000040420F00101D002051
:10067000A086010030B585B000240125FFF7BCFE3F
:100680002346039402940194009546221649174884
:1006900000F078FC03230093039423460294019412
:1006A00046221349134800F06DFC2346039402943C
:1006B0000194009546221049104800F063FC23463F
:1006C00046220F4903940294019400950D4800F0CE
:1006D00059FC00F00FFD02220F210B4800F011FC25
:1006E000284605B030BD00BF3B2D00000D160000B0
:1006F000462D0000410B00004A2D00006D1E000039
:100700004E2D00009D1B000000500240084BC0F31E
:10071000072213445B01800023F07E4300F47F70C6
:1007200023F01F0340F0844018430068C0B27047B4
:1007300000EA0F40084BC0F3072213445B0180001E
:1007400023F07E4300F47F7023F01F0340F08440C9
:10075000184301230360704700E60F403D49F0B5A0
:100760003D4C0D68236825F4800243F4006642F492
:10077000006215F0010F0A602660384E13D0C507DD
:1007800011D460F001052A40DFF8E4E04FF48075F1
:1007900035600A604FF40025DEF80070FF0502D4D2
:1007A000013DF9D154E022F4FE6200F4FE651543E8
:1007B00023F000432A4A0D6023F0700343F40063E2
:1007C00002401A43C30003F0400313432360224F47
:1007D000DFF880E025F4005223F4005300F40055C4
:1007E0002B4342EA05024FF0400C1E4DC6F800C0F4
:1007F0004ABF3B60CEF80020CEF8002022F0F8621D
:1008000005EA000522F0010258BF3B602A4323F0AD
:10081000FC5300F0FC552B43450041BF124D23F41F
:100820008003054042F480024CBF2B4323F08043F9
:1008300007050BD40D4D4FF400402E68F60701D488
:100840000138FAD122F4006223F400630A602360C5
:10085000F0BD00BF60E00F4070E00F4058E00F4077
:10086000300000800100C0070000404068E10F40F8
:1008700050E00F40474B70B51D681A69002A10DA26
:1008800002F07003202B23D004D8C3B1102B7BD1EE
:10089000414B1EE0302B79D0702B75D14FF40043C3
:1008A00017E005F03003102B16D001D83BB16BE0F8
:1008B000202B13D0302B67D147F230530FE037494C
:1008C000C5F3841301EB8303002A1B6B07DA00E0F6
:1008D000334B12F4006F04E02F4B00E0304B15F463
:1008E000006F34D12F490E684C68C4F3042004F023
:1008F0001F040134610000FB0111B3FBF1F1C6F3E9
:100900000903C6F389264E43B60A01FB0363264951
:10091000096801F47041B1F5804F45F4800512D0AB
:1009200007D8B1F5005F0CD0B1F5405F0FD11F487B
:100930000FE0B1F5E04F08D0B1F5104F07D11C48DA
:1009400007E01C4805E01C4803E01C4801E04FF0AC
:10095000FF306E0214D5002A0DDA540005D51105BA
:1009600003D45B00C2F3865201E0C2F3C5520132E8
:10097000B3FBF2F304E0C5F3C3550135B3FBF5F364
:10098000984228BF184670BD002070BD47F2305312
:100990009FE700BF60E00F400024F4005C2D0000E2
:1009A00000093D0060E10F4010E00F4080F0FA02C6
:1009B000002D310100B4C404005A620240787D0168
:1009C0002DE9F043164B174A93F80080164B174950
:1009D000D2E90067D3E900450020B1F800E0844681
:1009E0005FFA80F9C84509D901304FF0000E4FF089
:1009F000010C00260E4F00240025F1E7BCF1000F8A
:100A000005D0C2E90067C3E90045A1F800E0094B41
:100A1000012200201A7098705A70BDE8F08300BF60
:100A2000FC1C0020381D0020F01C0020441D00206C
:100A300000004940F91C002008B50D4B188801F052
:100A4000C9FC07A3D3E9002301F02AFD06A3D3E9DB
:100A5000002301F025FD074BC3E9060108BD00BFD7
:100A60007B14AE47E17A743F0ADAE4F04927323F5B
:100A7000441D0020101D0020D0B5094CD4E90467A6
:100A8000D4E908233046394601F058FB02460B46AC
:100A90003046394601F02EFEC4E90001D0BD00BF4A
:100AA000101D002000000000D0B5114CD4E90267F1
:100AB000D4E9060132463B4601F03EFBD4E900236F
:100AC00001F0EEFC32463B4601F038FB06A3D3E9C9
:100AD0000023C4E9020101F00DFE01F07BFF054B8C
:100AE0001880D0BDAFF30080BB87BE9A873CB73E6D
:100AF000101D0020441D002010B5074C0749D4E903
:100B00000023002001F018FBD4E9042301F0C8FC05
:100B1000C4E9040110BD00BF101D00200000F03F1B
:100B200008B5054B1888AB2390FBF3F001F052FC9D
:100B3000024BC3E9000108BDD81D0020F01C0020B5
:100B4000894B2DE9F04F894E894CD3E900AB44F233
:100B5000CC233380874B0022C4E90423864B002238
:100B6000C4E908237AA3D3E90023C4E90223C4E932
:100B70000623824B002285B0C4E900230025ADF88E
:100B80000E507F487F4F006800234FF0FF320DF179
:100B90000E0100F0BDFEFFF74FFFFFF76DFFFFF7FF
:100BA00083FFFFF7A9FF6CA3D3E90023D4E9000179
:100BB00001F076FC01F00EFFD4E90289C0B268A30F
:100BC000D3E9002378604946404601F069FC01F012
:100BD00001FFC0B260A3D3E90023B860D4E90401E7
:100BE00001F05EFC01F0F6FEC0B25DA3D3E9002384
:100BF000F860D4E9060101F053FC01F0EBFEC0B24D
:100C00003861D4E9080101F0E5FE5F4B1B78C0B202
:100C1000786123BB5D4B1B78012B48D100225C4BD4
:100C20004046494601F03CFCCDE90001308801F026
:100C3000D1FB02460B46DDE9000101F05BFD0246F7
:100C40000B465046594601F077FA824628468B46B5
:100C500001F0C0FB42464B4601F06EFA24E0012B46
:100C600025D14A4B1B7813BB0022494B40464946CD
:100C700001F016FCCDE90001308801F0ABFB024623
:100C80000B46DDE9000101F035FD02460B465046FA
:100C9000594601F053FA824628468B4601F09AFBEA
:100CA00042464B4601F04AFA01F094FE85B2384BB9
:100CB00000225046594601F0F3FB01F08BFE81B251
:100CC000344801F0C5F8344B1B88B3F5616F0CD97B
:100CD00000222F4B5046594601F072FE68B1358014
:100CE0004FF0000ADFF8A8B007E040F62722934251
:100CF0009CBF4FF0000A4FF0000BFFF711FF594661
:100D0000504601F067FEC1B22448254FFFF789FA2B
:100D1000244BD3E9000101F05DFEC1B21F48FFF78B
:100D200080FA39881D48090AFFF77BFA39781B4891
:100D3000FFF777FA1C4B1B78002B7FF422AF1B4880
:100D40004FF0FF320DF10E01006800F079FD18E759
:100D50008087FDF9111AEC3E0000000080842E41CE
:100D600000000000006AF840381D0020D81D002057
:100D7000101D0020000049400000E03F0000F03F4F
:100D8000401D00204C1D0020461D0020471D002056
:100D900000005940B02F0000081D002000F0004066
:100DA000441D0020F01C0020F91C0020481D0020DC
:100DB000D0F8003412F0010F10B500F5806414BFB4
:100DC0000B438B43236012F0020FD0F8202400F570
:100DD000846314BF114322EA0101196010BDF0B50C
:100DE000C2F3411700244FF0030E41FA04F5ED075A
:100DF0000FD5D0F8C46F65000EFA05FC26EA0C0684
:100E0000C0F8C46FD0F8C46F07FA05F53543C0F8D1
:100E1000C45F0134082CE8D1D0F80045D60700F5AE
:100E2000A0654CBF0C438C432C60D0F80445970759
:100E300000F204554CBF0C438C432C60D0F808459D
:100E4000560700F5A1654CBF0C438C432C60D0F8CD
:100E50001845170700F5A3654CBF0C438C432C6065
:100E600012F0100FD0F83C2500F23C5414BF0A4396
:100E70008A432260D0F80C2500F20C54DE074CBFE8
:100E80000A438A432260D0F8102500F5A2649D072A
:100E90004CBF0A438A432260D0F8142500F2145450
:100EA0005F074CBF0A438A432260D0F81C2500F23A
:100EB0001C541E074CBF0A438A432260D0F84425C5
:100EC00000F244549D054CBF0A438A432260D0F887
:100ED000402513F4407F00F5A86414BF0A438A43F9
:100EE000226000F5A5621BB9D0F82835194303E04C
:100EF000D0F8283523EA01011160F0BD50F8210037
:100F0000704740F82120704738B501220D4608236C
:100F1000FFF765FF29460122BDE83840FFF748BFCB
:100F200070B502220D46FFF743FF29460823012230
:100F3000BDE87040FFF753BFFFF7F2BF0F4BC0F3A0
:100F400007421968012393400B420D4B03EBC20388
:100F500010B514BFD3F89C31D3F89831C0F30724EF
:100F6000D3F82C150F22A24000F00F0021EA020254
:100F7000A0401043C3F82C0510BD00BF6CE00F402B
:100F8000BC2F00002DE9F84F804644208A461546C4
:100F900099460A9E0C9F01F017F80446002800F0BD
:100FA000A2801FB9A80001F00FF800E038462063C6
:100FB00018B9204601F064F895E0AD002A46A52155
:100FC00001F0C2FD236B51460A22043D04F13400B6
:100FD0001D4401F007FE092E37464FF0000B28BFD5
:100FE000092704F1040A504684F83DB0E7622764FB
:100FF00000F047FB04F1180000F043FB25F0070563
:10100000C7F10A03A3614A46414628462461646247
:1010100000F000FD364D206000F046FD2B680133E6
:101020002B602B68012B05F1080926D16C6009EBB8
:101030000B000BF1140B00F019FBBBF1C80FDFF82C
:10104000B080F4D108F1D007384608F1E40B00F085
:101050000DFB584600F00AFB08F1F80000F006FB13
:1010600008F5867000F002FB08F5907000F0FEFABB
:10107000C8F83471C8F838B107E0D5F83C3123B965
:101080006B68DB6A9E4228BF6C60E36AD5F840213A
:10109000934284BF164AC2F84031D5F84421013248
:1010A000C5F84421D5F84821934288BF104A4FF033
:1010B000140000FB0390514688BFC2F8483100F08D
:1010C000E3FA00F0FDFC0B9B03B11C60D5F83C314A
:1010D00033B1074B5B68DB6A9E4201D900F0DCFC50
:1010E0000120BDE8F88F4FF0FF30BDE8F88F00BF5A
:1010F000080000201FB500244622039402940194A6
:10110000009423460B490C48FFF73CFF0128024698
:101110000DD14FF0BF0080F31188084BC3F83C217C
:10112000C3F8544104B0BDE8104000F097BC04B0CF
:1011300010BD00BFE43100000913000008000020CA
:10114000034AD2F850310133C2F85031704700BF22
:10115000080000202DE9F843264BD3F850211C4607
:10116000002A40D1D3F854310133C4F85431D4F8B3
:10117000543163B9D4F83431D4F83821C4F8342167
:10118000C4F83831D4F858310133C4F85831194E05
:101190004FF0140906F10808D4F834311B683BB34A
:1011A000D6F83431DB68DD68DDB1D6F854316A68D1
:1011B0009A421DD82F1D384600F08BFAAB6A1BB13E
:1011C00005F1180000F085FAE86AD4F84831984231
:1011D00088BFC6F84801394609FB008000F054FA80
:1011E000DAE7BDE8F883D3F85C210132C3F85C216B
:1011F000BDE8F883080000202DE9F0472E4C00F0F0
:1012000053FCD4F85031013BC4F85031D4F850515C
:101210000DB100244AE02368002BFAD0274604F1E0
:1012200008094FF0140AD4F8F8302BB9D4F85C212F
:10123000214B6AB31D4620E0D7F80431DE68002E4A
:10124000F4D006F1180006F1040800F042FA404616
:1012500000F03FFAF06AD7F84831984288BFC7F8E3
:10126000480141460AFB009000F00EFA6368F26AFA
:10127000DB6A9A4228BF0125D5E7D4F85C314BB12F
:10128000FFF768FFD5F85C31013BC5F85C31F4E746
:10129000012D06D10023C4F8603100F0FDFB0124CC
:1012A00004E0D3F86031012BB3D1F3E700F008FC80
:1012B0002046BDE8F08700BF0800002038B518B907
:1012C000BDE8384000F0E8BB0E4CFFF739FFD4F81A
:1012D0005431C5186068043000F0FBF963685D6044
:1012E000D4F854319D4234BFD4F83801D4F83401D5
:1012F0006168043100F0D5F9FFF77EFF0028DFD0E8
:1013000038BD00BF0800002080B51E4C2646D4F82A
:101310004C311C4D0BB3FFF713FFD4F80C71FFF7E2
:101320006BFFD7B100F0C0FBD4F80C71DFB1D4F87B
:101330001831DD68281D00F0CCF92368013B2360DB
:10134000D4F84C31013BC4F84C3100F0B9FB286BA8
:1013500000F096FE284600F093FEB368012BD6D924
:1013600000F09AFBD3E7042000F0B3F92B68013BAF
:101370002B60D5F84C31013BC5F84C3100F0A0FB97
:101380003B6BFFDE08000020174BD3F8502130B52F
:10139000194612B91A46142003E00122C3F860214D
:1013A00030BDD1F84831104D00FB03139B682BB9B9
:1013B000D2F84831013BC2F84831F2E7D5F848018C
:1013C000142202FB00F3EA181346D4686468D46060
:1013D00010339C4204BF6368D360142303FB0010E6
:1013E000C368DB684B6030BD0800002038B5134C83
:1013F0000D466168183100F054F96068043000F05F
:1014000068F96B1C07D1616804F590700431BDE880
:10141000384000F039B9D4F8541163682944596050
:10142000D4F85431994234BFD4F83801D4F8340197
:101430006168BDE83840043100F033B9080000208D
:1014400070B504680CB1C368DC68134D04F118066C
:10145000304600F03EF9D5F8503183B9261D3046AC
:1014600000F037F9E36AD5F8482193420B4A88BF68
:10147000C5F848311420314600FB032002E0314614
:1014800005F1F80000F000F96B68E06ADB6A984249
:1014900034BF0020012070BD080000201000002093
:1014A000034BD3F85821D3F854310260436070479E
:1014B0000800002038B50D46044600F0F5FA2B6808
:1014C0005A1C19D0104A2068D2F858118842114687
:1014D000606803D0D2F8542190420FD9D1F854213A
:1014E000121A93420AD9084AD2F85421121A9B1AA6
:1014F0002B602046FFF7D4FF002400E0012400F019
:10150000DFFA204638BD00BF08000020024B012250
:10151000C3F86021704700BF08000020014B5868E5
:10152000704700BF08000020F8B5174CC36A626816
:10153000D26A9342054626D26268D26AC2F10A0292
:10154000826104F10800142202FB03036A699A42D3
:10155000064615D12F1D384600F0BBF86368D4F855
:101560004821DB6AEB6293424FF0140088BFC4F855
:101570004831394600FB0360BDE8F84000F084B80C
:101580006368DB6AEB62F8BD0800002038B50446EA
:10159000E0B1C26A036C9A4218D0051D284600F0DB
:1015A00098F8236CE362C3F10A02A261084AD2F8F8
:1015B00048118B4288BFC2F84831064A1420294698
:1015C00000FB0320BDE8384000F05EB838BD00BF26
:1015D000080000201000002010B50A48FFF7AAF804
:1015E0000B240848FFF792F828B9013C14F0FF04D7
:1015F000F7D1012010BD0F210348FFF785FC002023
:1016000010BD00BF050800F0005002402DE9F04178
:10161000134FDFF854800A26022508243B783BB19B
:101620002A460F210F48FFF76CFC85F0020511E0F8
:1016300098F800303BB932460F210A48FFF761FCA9
:1016400086F00A0606E022460F210648FFF759FCFD
:1016500084F008044FF4FA70FFF730FEDEE700BFB5
:10166000F81C002000500240F91C002000F1080383
:101670004FF0FF3282604360C36003610023036068
:10168000704700230361704743685A684A605A688C
:101690008B609160596003684160013308610360A9
:1016A00070470A68531C10B501D1036907E000F1C7
:1016B00008035C682468A24201D35B68F9E75A68B2
:1016C0004A6091608B605960036808610133036070
:1016D00010BD436882689A608268536003695968E4
:1016E000884208BF5A60002202611A68013A1A60F3
:1016F000704738B51346026C044632B9056805BB1D
:101700004068FFF743FF65601BE063B9806801F044
:1017100081F9A268236C13446268A360934210D3DA
:101720002368A3600DE0C06801F074F9236CE268DF
:1017300021685B421A448A42E2603EBF62689B189D
:10174000E360A36B0133A36338BD034630B41C6868
:1017500008465CB1D9681A6C5D681144A942D96029
:1017600028BFDC60D96830BC01F054B930BC704788
:1017700038B5044600F098F904F12405A36C002B59
:101780000BDD636A4BB12846FFF75AFE08B1FFF73D
:10179000BDFEA36C013BA364F0E74FF0FF33A364ED
:1017A00000F08EF900F080F904F11005636C002B55
:1017B0000BDD23694BB12846FFF742FE08B1FFF766
:1017C000A5FE636C013B6364F0E74FF0FF33636495
:1017D000BDE8384000F074B92DE9F0410F4680466D
:1017E00010B90020BDE8F0814C2000F0EDFB04466C
:1017F0000028F6D007FB08F6701C00F0E5FB054654
:101800002060C8B183196360F61B0023A3633544CD
:101810004FF0FF33A0606364A36404F11000E5603F
:10182000C4F83C802764FFF721FF04F12400FFF790
:101830001DFF2046BDE8F081204600F021FCD0E7E6
:101840002DE9F04385B0002604468846019299466A
:10185000374600F029F9A26BE36B9A4212D24A464E
:1018600041462046FFF745FF636A3BB104F124007F
:10187000FFF7E6FD012801D100F00EF900F020F994
:10188000012042E0019D1DB900F01AF928463CE014
:1018900016B902A8FFF704FE00F012F9FFF750FC9A
:1018A00000F002F9636C0133A36C08BF6764013375
:1018B00008BFA76400F004F901A902A8FFF7FAFD28
:1018C000E8B900F0F1F8A66BE56B00F0F9F8AE426C
:1018D0000FD1019904F11000FFF788FD2046FFF7B2
:1018E00047FFFFF789FC08B10126B2E700F0D4F802
:1018F000FAE72046FFF73CFFFFF77EFCF4E72046BF
:10190000FFF736FFFFF778FC002005B0BDE8F08355
:101910002DE9F04385B00026044688460192994699
:10192000374600F0C1F8A36B3BB341462046E5685B
:10193000FFF70BFFB9F1000F12D1A36B013BA363BB
:10194000236813B9FFF7EAFD606023698BB104F1E6
:101950001000FFF775FD01280BD100F09DF808E09D
:10196000636AE5602BB104F12400FFF769FD0028EC
:10197000F3D100F0A5F8012049E0019D1DB900F068
:101980009FF8284643E016B902A8FFF789FD00F04A
:1019900097F8FFF7D5FB00F087F8636C0133A36C71
:1019A00008BF6764013308BFA76400F089F801A984
:1019B00002A8FFF77FFD20BB00F076F8A56B00F0D2
:1019C0007FF8C5B9236833B900F06EF86068FFF797
:1019D000ABFD00F075F8019904F12400FFF706FD56
:1019E0002046FFF7C5FEFFF707FC08B1012698E780
:1019F00000F052F8FAE72046FFF7BAFEFFF7FCFBCB
:101A0000F4E72046FFF7B4FEFFF7F6FB002005B031
:101A1000BDE8F0834FF0807300E90A00002340F82E
:101A20000C3C40F8202C403870470000064B1968E9
:101A30000868B0E8F00F80F309884FF0000080F3E9
:101A400011884EF00D0E70470C000020024800680F
:101A5000006880F3088800DF08ED00E008B50B4B54
:101A60001A6842F47F021A601A6842F07F421A60D4
:101A7000A3F60C53064A1A60072243F8042C054BC0
:101A800000201860FFF7E2FF08BD00BF20ED00E076
:101A90007F38010000000020024B4FF080521A6096
:101AA000704700BF04ED00E04FF0BF0080F31188E5
:101AB000024A136801331360704700BF0000002022
:101AC000044A1368013B13601BB94FF0000080F318
:101AD0001188704700000020EFF309800C4B1A6852
:101AE00020E9F00F10602DE908404FF0BF0080F3AF
:101AF0001188FFF749FC4FF0000080F31188BDE822
:101B0000084019680868B0E8F00F80F3098870474A
:101B10000C00002008B5074B4FF080521A604FF0C0
:101B2000BF0080F31188FFF715FB4FF0000080F332
:101B3000118808BD04ED00E008B51648FEF7FAFD6F
:101B40001448FEF7E3FD0028FAD001211248FFF700
:101B5000DBF9002201211048FFF72AF90122114682
:101B60000C230D48FFF73BF9FEF784FEFEF770FAF1
:101B7000FEF714FB0020FEF7B3FAFEF773FAFEF748
:101B8000C5FAC11C0020FEF7C7FA0820FEF774FA58
:101B9000002008BD040800F00040024073B502AC0C
:101BA000002344F8043D114E114D30684FF0FF32D0
:101BB00000232146FFF7ACFE2A78002AF5D10E213A
:101BC0000C48FFF79EF90C48012307210360FEF73C
:101BD000A9FA0720FFF772FB0848FEF719FB10B9B6
:101BE0000720FFF76BFBFEF7BDFAFEE7481D00205C
:101BF000F91C0020005002404C1D002000F0004065
:101C00002DE9F047124C134F54F820603B68824690
:101C10001B693046894690469847B0B104EB8A0468
:101C20000D4DE3682B603B680C4C9B693046984730
:101C3000236828685E694A4660234146B0472368A6
:101C40002868DB69BDE8F0471847BDE8F08700BFAA
:101C5000EC310000440000016C0100201400000180
:101C60002DE9F8430D4E0E4F0D46044600EB0108DA
:101C7000444510D023780A2BA14604D13B68306834
:101C80001B680D2198473B6899F800101B68306865
:101C900001349847ECE72846BDE8F8836C01002042
:101CA000140000012DE9F047664F86B006460D4648
:101CB0003378002B00F0C3803346991B1C4613F881
:101CC000012B252A07D13046FFF7CAFF2378252BA1
:101CD00004D02646ECE7002AEFD1F4E7601C4FF071
:101CE000200E00240A22064616F8013B642B2CD055
:101CF00015D8392B06D8302B1DD2252B40F09880D3
:101D0000012197E0582B46D0632B40F0918006A824
:101D10002B6840F8143D05F10408012185E0732B80
:101D20001DD003D8692B10D0702B02E0752B2CD05E
:101D3000782B30D07CE002D1002C08BF9E4602FBFD
:101D40000433A3F130043046CDE72B68002B05F1B6
:101D500004081DDA5B42019301210A2221E0286870
:101D600005F1040803461D1A13F8012B002AFAD1C5
:101D70002946FFF775FFAC425FD9641B0121324849
:101D8000FFF76EFF013CF9D157E02B6805F104081D
:101D900001930021E1E72B68019305F1040800217C
:101DA0001022DDF80490012502FB05F34B4502D912
:101DB00041B90B4613E0B3FBF2F08542F8D1013C88
:101DC0001D46F1E7BEF1300F04BF2D238DF808301A
:101DD00004F1FF3407BF0021012301210023A01ECD
:101DE0000D2802A80BD803F1FF3C04F1FF3A84440C
:101DF000BAF1010A0CF801EFFAD12344013B29B1F1
:101E000006A919442D2401F8104C01330344191A72
:101E10005DB1B9FBF5F4B4FBF2F102FB1141B5FB86
:101E2000F2F5C95D03F8011BF1E7FFF719FF04E0C4
:101E300006480521FFF714FFA846454638E706B0D7
:101E4000BDE8F0870D3200000B3200001E320000AA
:101E50000FB407B504A951F8040B0191FFF722FF55
:101E600003B05DF804EB04B07047000073B52023A5
:101E70004D4E4E4DADF806304D48FEF7CDF980B2CF
:101E8000E128ADF8060001D1002202E0E02803D1EC
:101E90000122484B1A70EFE7FF282BD14448FEF788
:101EA000BBF90002ADF806004148FEF7B5F9BDF8F0
:101EB00006301843404B80B21880ADF806003C480D
:101EC000FEF7AAF90002ADF806003948FEF7A4F9BA
:101ED000BDF8063002A9184380B2384B21F8020D34
:101EE000C8381880364800234FF0FF320068FFF7EB
:101EF000A7FCC1E7E22849D12D48324CFEF78CF906
:101F0000ADF8060020702A48FEF786F9ADF8060005
:101F100060702748FEF780F9ADF80600A0702448ED
:101F2000FEF77AF90002ADF806002148FEF774F9D1
:101F3000BDF80630184380B2ADF80600A0801C48FA
:101F4000FEF76AF90002ADF806001948FEF764F9D9
:101F5000BDF80630184380B2ADF80600E0801448A2
:101F6000FEF75AF9ADF8060020721148FEF754F951
:101F70000002ADF806000E48FEF74EF9BDF8063037
:101F8000184380B2ADF80600608175E7E32803D1FD
:101F900001233370002305E0E4287FF46DAF0023B4
:101FA000337001232B7067E7461D0020471D00207A
:101FB00000F00040F91C0020441D0020081D0020F6
:101FC000401D0020FC1C002070B50446FFF7B8F847
:101FD000284B986890B903F110021A60264A58609D
:101FE00041F65831C2F8700AC2F8741A02F5276037
:101FF000C2F8781A0122596118619A602CB1103424
:1020000062071CBF24F007040834611E41F65632F3
:1020100091422AD81B6817495A68944203D8174836
:10202000834206D121E018680028F8D019460346FB
:10203000F2E70D6818680860121B202A05F11005E8
:102040000CD919194A605C604E680A4B1A685068CE
:10205000864201D91346F9E70A601960064BD3F8A6
:10206000780A001BC3F8780A00E00025FFF7C4F8DF
:10207000284670BD7801002070120020E01C00206E
:1020800038B50446C8B1A0F11005FFF759F854F867
:102090000C3C0A4A11684868834201D90A46F9E7AC
:1020A00044F8101C1560064AD2F8781A0B44C2F89E
:1020B000783ABDE83840FFF79FB838BD7801002076
:1020C00070120020124B13481B6870B59B69124DAB
:1020D000124C98471249134A134B0B60136843F094
:1020E0000103136000220A602B6811215B682046FF
:1020F00098472B6801225E6911210A232046B047C8
:102100002B681121DB6A20469847084B187070BD78
:1021100044000001050800F02000000100500240CA
:1021200020550240245502404B434F4C04000020F0
:1021300081F0004102E000BF83F0004330B54FEA78
:1021400041044FEA430594EA050F08BF90EA020FE5
:102150001FBF54EA000C55EA020C7FEA645C7FEA78
:10216000655C00F0E2804FEA5454D4EB5555B8BF9B
:102170006D420CDD2C4480EA020281EA030382EA0C
:10218000000083EA010180EA020281EA0303362D9E
:1021900088BF30BD11F0004F4FEA01314FF4801C71
:1021A0004CEA113102D0404261EB410113F0004F83
:1021B0004FEA03334CEA133302D0524263EB43033A
:1021C00094EA050F00F0A780A4F10104D5F1200ED8
:1021D0000DDB02FA0EFC22FA05F2801841F1000133
:1021E00003FA0EF2801843FA05F359410EE0A5F107
:1021F00020050EF1200E012A03FA0EFC28BF4CF038
:10220000020C43FA05F3C01851EBE37101F00045ED
:1022100007D54FF0000EDCF1000C7EEB00006EEBFA
:102220000101B1F5801F1BD3B1F5001F0CD3490884
:102230005FEA30004FEA3C0C04F101044FEA4452DB
:1022400012F5800F80F09A80BCF1004F08BF5FEA62
:10225000500C50F1000041EB045141EA050130BD42
:102260005FEA4C0C404141EB010111F4801FA4F1E5
:102270000104E9D191F0000F04BF01460020B1FA3A
:1022800081F308BF2033A3F10B03B3F120020CDA72
:102290000C3208DD02F1140CC2F10C0201FA0CF050
:1022A00021FA02F10CE002F11402D8BFC2F1200CB5
:1022B00001FA02F120FA0CFCDCBF41EA0C0190406B
:1022C000E41AA2BF01EB0451294330BD6FEA0404B4
:1022D0001F3C1CDA0C340EDC04F11404C4F120029F
:1022E00020FA04F001FA02F340EA030021FA04F3B1
:1022F00045EA030130BDC4F10C04C4F1200220FA08
:1023000002F001FA04F340EA0300294630BD21FA45
:1023100004F0294630BD94F0000F83F4801306BF0B
:1023200081F480110134013D4EE77FEA645C18BFFF
:102330007FEA655C29D094EA050F08BF90EA020F96
:1023400005D054EA000C04BF1946104630BD91EA8E
:10235000030F1EBF0021002030BD5FEA545C05D191
:102360004000494128BF41F0004130BD14F58004D0
:102370003CBF01F5801130BD01F0004545F0FE4144
:1023800041F470014FF0000030BD7FEA645C1ABF79
:10239000194610467FEA655C1CBF0B46024650EAB0
:1023A000013406BF52EA033591EA030F41F40021DC
:1023B00030BD00BF90F0000F04BF0021704730B562
:1023C0004FF4806404F132044FF000054FF0000137
:1023D00050E700BF90F0000F04BF0021704730B5F8
:1023E0004FF4806404F1320410F0004548BF4042CD
:1023F0004FF000013EE700BF42004FEAE2014FEA22
:1024000031014FEA02701FBF12F07F4393F07F4FFC
:1024100081F06051704792F0000F14BF93F07F4F2E
:10242000704730B54FF4607401F0004521F0004171
:1024300020E700BF50EA010208BF704730B54FF0F7
:1024400000050AE050EA010208BF704730B511F0FC
:10245000004502D5404261EB41014FF4806404F134
:1024600032045FEA915C3FF4DCAE4FF003025FEAB6
:10247000DC0C18BF03325FEADC0C18BF033202EB3E
:10248000DC02C2F1200300FA03FC20FA02F001FA98
:1024900003FE40EA0E0021FA02F11444C1E600BF37
:1024A00070B54FF0FF0C4CF4E06C1CEA11541DBFEA
:1024B0001CEA135594EA0C0F95EA0C0F00F0DEF8B5
:1024C0002C4481EA030621EA4C5123EA4C5350EA9A
:1024D000013518BF52EA033541F4801143F48013EB
:1024E00038D0A0FB02CE4FF00005E1FB02E506F07C
:1024F0000042E0FB03E54FF00006E1FB03569CF0D1
:10250000000F18BF4EF0010EA4F1FF04B6F5007FD6
:1025100064F5407404D25FEA4E0E6D4146EB060648
:1025200042EAC62141EA55514FEAC52040EA5E50D1
:102530004FEACE2EB4F1FD0C88BFBCF5E06F1ED87B
:10254000BEF1004F08BF5FEA500E50F1000041EBB2
:10255000045170BD06F0004646EA010140EA02005F
:1025600081EA0301B4EB5C04C2BFD4EB0C0541EA81
:10257000045170BD41F480114FF0000E013C00F396
:10258000AB8014F1360FDEBF002001F0004170BDBA
:10259000C4F10004203C35DA0C341BDC04F11404D3
:1025A000C4F1200500FA05F320FA04F001FA05F25F
:1025B00040EA020001F0004221F0004110EBD3702C
:1025C00021FA04F642EB06015EEA430E08BF20EA58
:1025D000D37070BDC4F10C04C4F1200500FA04F3FB
:1025E00020FA05F001FA04F240EA020001F000418D
:1025F00010EBD37041F100015EEA430E08BF20EA00
:10260000D37070BDC4F1200500FA05F24EEA020E47
:1026100020FA04F301FA05F243EA020321FA04F076
:1026200001F0004121FA04F220EA020000EBD3702D
:102630005EEA430E08BF20EAD37070BD94F0000F2D
:102640000FD101F00046400041EB010111F4801F61
:1026500008BF013CF7D041EA060195F0000F18BF12
:10266000704703F00046520043EB030313F4801F4E
:1026700008BF013DF7D043EA0603704794EA0C0F08
:102680000CEA135518BF95EA0C0F0CD050EA41061E
:1026900018BF52EA4306D1D181EA030101F000419B
:1026A0004FF0000070BD50EA410606BF10461946C3
:1026B00052EA430619D094EA0C0F02D150EA0136CF
:1026C00013D195EA0C0F05D152EA03361CBF104610
:1026D00019460AD181EA030101F0004141F0FE41AF
:1026E00041F470014FF0000070BD41F0FE4141F433
:1026F000780170BD70B54FF0FF0C4CF4E06C1CEA33
:1027000011541DBF1CEA135594EA0C0F95EA0C0FE7
:1027100000F0A7F8A4EB050481EA030E52EA0335A2
:102720004FEA013100F088804FEA03334FF08055C3
:1027300045EA131343EA12634FEA022245EA1115F0
:1027400045EA10654FEA00260EF000419D4208BFA1
:10275000964244F1FD0404F5407402D25B084FEA4E
:102760003202B61A65EB03055B084FEA32024FF4FA
:1027700080104FF4002CB6EB020E75EB030E22BF57
:10278000B61A754640EA0C005B084FEA3202B6EB17
:10279000020E75EB030E22BFB61A754640EA5C00C6
:1027A0005B084FEA3202B6EB020E75EB030E22BF56
:1027B000B61A754640EA9C005B084FEA3202B6EB57
:1027C000020E75EB030E22BFB61A754640EADC0016
:1027D00055EA060E18D04FEA051545EA16754FEA78
:1027E00006164FEAC30343EA52734FEAC2025FEA96
:1027F0001C1CC0D111F4801F0BD141EA00014FF025
:1028000000004FF0004CB6E711F4801F04BF0143F5
:102810000020B4F1FD0C88BFBCF5E06F3FF6AFAE11
:10282000B5EB030C04BFB6EB020C5FEA500C50F1A1
:10283000000041EB045170BD0EF0004E4EEA113124
:1028400014EB5C04C2BFD4EB0C0541EA045170BD2B
:1028500041F480114FF0000E013C90E645EA060E6F
:102860008DE60CEA135594EA0C0F08BF95EA0C0F9D
:102870003FF43BAF94EA0C0F0AD150EA01347FF4E5
:1028800034AF95EA0C0F7FF425AF104619462CE7BC
:1028900095EA0C0F06D152EA03353FF4FDAE10461F
:1028A000194622E750EA410618BF52EA43067FF470
:1028B000C5AE50EA41047FF40DAF52EA43057FF400
:1028C000EBAE12E74FF0FF3C06E000BF4FF0010C0B
:1028D00002E000BF4FF0010C4DF804CD4FEA410C6F
:1028E0007FEA6C5C4FEA430C18BF7FEA6C5C1BD03C
:1028F00001B050EA410C0CBF52EA430C91EA030FBD
:1029000002BF90EA020F0020704710F1000F91EA19
:10291000030F58BF994208BF90422CBFD8176FEAE7
:10292000E37040F0010070474FEA410C7FEA6C5CB5
:1029300002D150EA013C07D14FEA430C7FEA6C5CBC
:10294000D6D152EA033CD3D05DF8040B704700BFE8
:102950008446104662468C461946634600E000BF36
:1029600001B5FFF7B7FF002848BF10F1000F01BD08
:102970004DF808EDFFF7F4FF0CBF012000205DF8D3
:1029800008FB00BF4DF808EDFFF7EAFF34BF012058
:1029900000205DF808FB00BF4DF808EDFFF7E0FFF1
:1029A00094BF012000205DF808FB00BF4DF808ED42
:1029B000FFF7CEFF94BF012000205DF808FB00BFA9
:1029C0004DF808EDFFF7C4FF34BF012000205DF88B
:1029D00008FB00BF4A0011D212F5001211D20DD52A
:1029E0006FF47873B3EB62520ED44FEAC12343F015
:1029F000004343EA505323FA02F070474FF00000BF
:102A0000704750EA013002D14FF0FF3070474FF06D
:102A100000007047844641EA000313F003036DD1C0
:102A2000403A41D351F8043B40F8043B51F8043B91
:102A300040F8043B51F8043B40F8043B51F8043B98
:102A400040F8043B51F8043B40F8043B51F8043B88
:102A500040F8043B51F8043B40F8043B51F8043B78
:102A600040F8043B51F8043B40F8043B51F8043B68
:102A700040F8043B51F8043B40F8043B51F8043B58
:102A800040F8043B51F8043B40F8043B51F8043B48
:102A900040F8043B51F8043B40F8043B51F8043B38
:102AA00040F8043B403ABDD2303211D351F8043BD8
:102AB00040F8043B51F8043B40F8043B51F8043B18
:102AC00040F8043B51F8043B40F8043B103AEDD287
:102AD0000C3205D351F8043B40F8043B043AF9D2D8
:102AE000043208D0D2071CBF11F8013B00F8013BAB
:102AF00001D30B8803806046704700BF082A13D3B8
:102B00008B078DD010F003038AD0C3F10403D21ACF
:102B1000DB071CBF11F8013B00F8013B80D331F803
:102B2000023B20F8023B7BE7043AD9D3013A11F883
:102B3000013B00F8013BF9D20B7803704B784370EE
:102B40008B7883706046704770B4840746D0541EFB
:102B5000002A41D0CDB2034602E0621EE4B314461F
:102B600003F8015B9A07F8D1032C2ED9CDB245EAC0
:102B700005250F2C45EA054519D903F11002264613
:102B8000103E0F2E42F8105C42F80C5C42F8085CD4
:102B900042F8045C02F11002F2D8A4F1100222F013
:102BA0000F0204F00F041032032C13440DD91E46FB
:102BB0002246043A032A46F8045BFAD8221F22F080
:102BC00003020432134404F003042CB1C9B21C44C0
:102BD00003F8011BA342FBD170BC704714460346A7
:102BE000C2E700BF40EA01039B0770B42BD1032A60
:102BF00029D90C460346214654F8046BA6F1013549
:102C000025EA060515F0803F06D1043A032A43F869
:102C1000046B2146EFD8A2B10C781C70013A013345
:102C200001313CB16AB111F8014B03F8014B013A93
:102C3000002CF7D12AB11A44002103F8011B9A4253
:102C4000FBD170BC70470346E5E700BF446574657F
:102C5000726D696E6520537461727475702E2E2EBC
:102C60000A0050696E204173736572746564200AAE
:102C70000052544320696E74657272757074200A34
:102C800000777269746520636F6D706C6574652080
:102C9000696E746572727570740A006C6F772D625C
:102CA00061747465727920696E746572727570747E
:102CB0000A00737570706C79206661696C75726555
:102CC00020696E746572727570740A0077616B6545
:102CD0002066726F6D2072657365742070696E2056
:102CE000696E746572727570740A0077616B652025
:102CF00066726F6D204750494F2070696E206F7269
:102D00002072657365742070696E20696E746572D7
:102D1000727570742E0A004572726F72202D2043F6
:102D20006F756C64206E6F742064657465726D6974
:102D30006E652077616B6575700A005374617475F8
:102D4000735F6C656400534F4300447370004869BF
:102D50006265726E6174696F6E0000000024F40099
:102D600030003000005A6202910091000087930306
:102D7000D200D20000B4C4041301130100E1F50530
:102D800054015401000E27079501950140420F00A0
:102D900000201C0080841E0000802500999E3600C3
:102DA0000040380000093D0000803E0000004B005C
:102DB000404B4C0000204E00808D5B0000C05D0049
:102DC0000080700000127A0000007D00809698005C
:102DD000001BB7000080BB00C0E8CE00647ADA00B8
:102DE0000024F4000000FA0080A81201002D310137
:102DF00000366E0140787D0100688909001C4E0E86
:102E00004000000000000000000100003E0008003B
:102E10000000000000010000A0000000020000000F
:102E20000001000034540100000000000001000017
:102E30002B700600000000000001000028000000C8
:102E40000000000000010000270001000000000059
:102E50000001000020000000000000000001000050
:102E60005000000002000000000100001AAC000049
:102E7000000000000001000017940900000000009D
:102E8000000100001698050000000000000100008D
:102E90001400000000000000000100001380080082
:102EA0000000000000010000A00000000800000079
:102EB0000001000010000000000000000001000000
:102EC0002800000002000000000100004000000097
:102ED000040000000001000060000000000000008D
:102EE000000100005D000C00000000000001000077
:102EF0005000000000000000000100004E00020031
:102F0000000000000001000041AC010000000000D2
:102F1000000100003C000000000000000001000073
:102F20003A800900000000000001000030000000AD
:102F30000000000000010000280000000000000068
:102F40000001000027000100000000000001000057
:102F5000236006000000000000010000216008005E
:102F600000000000000100001E0000000000000042
:102F7000000100001DC0040000000000000100006E
:102F800050000000020000000001000018000000D6
:102F9000000000000001000014000000000000001C
:102FA00000010000600000000400000000010000BB
:102FB000536F43203D2025640A000000004000407C
:102FC000100000000080054010000000005000408C
:102FD000110000000090054011000000006000405A
:102FE0001200000000A00540120000000070004028
:102FF0001300000000B00540130000000040024034
:103000001400000000C00540140000000050024001
:103010002E00000000D005402E000000006002409D
:103020002F00000000E005402F000000007002406B
:103030003000000000F005403000000000D00340E8
:103040004600000000000640460000000010064058
:103050004700000000200640480000000030064005
:103060007F00000000400640800000000050064045
:1030700084000000006006408C000000004000401A
:1030800010000000008005401000000000500040CB
:103090001100000000900540110000000060004099
:1030A0001200000000A00540120000000070004067
:1030B0001300000000B00540130000000040024073
:1030C0001400000000C00540140000000050024041
:1030D0002E00000000D005402E00000000600240DD
:1030E0002F00000000E005402F00000000700240AB
:1030F0003000000000F005403000000000D0034028
:10310000430000000000064043000000001006409D
:10311000440000000020064045000000003006404A
:1031200058000000004006405900000000500640D2
:103130005C00000000600640640000000070064073
:103140006C000000008006406D000000009006400A
:103150007F0000000040004000800540005000401B
:10316000009005400060004000A005400070004055
:1031700000B005400040024000C005400050024041
:1031800000D005400060024000E0054000700240B1
:1031900000F0054000D0034000000640001006404B
:1031A0000010064000200640002006400030064087
:1031B00000300640004006400040064000500640F7
:1031C0000050064000600640006006400070064067
:1031D00000700640008006400080064000900640D7
:1031E0000090064049444C4500000000001800F0E3
:1031F000011800F0021800F000C0004000D00040AC
:1032000000E00040082008000D0A002000303132A4
:103210003334353637383961626364656600455248
:04322000524F5200B7
:08322400AAAAAAAA11000000E9
:00000001FF
